:10000000B2C00000D0C00000CEC000008AC6000010
:10001000CAC00000C4C5000037C60000C4C000004C
:10002000C2C00000C0C00000BEC00000BCC00000D4
:10003000BAC00000B8C00000B6C00000B4C00000E4
:10004000B2C00000B0C00000AEC00000ACC00000F4
:10005000AAC00000A8C00000A6C0000079C500002A
:10006000A2C00000A0C000009EC000009CC0000014
:100070009AC0000098C0000096C0000094C0000024
:1000800092C0000090C000008EC000008CC0000034
:100090008AC0000088C0000086C0000001C10000C6
:1000A00082C0000080C000007EC000007CC0000054
:1000B0007AC0000078C0000076C0000074C0000064
:1000C00072C0000070C000006EC000006CC0000074
:1000D0006AC0000068C0000066C0000064C0000084
:1000E00062C0000007634236B79BD8A71A3968562A
:1000F00018AEBAAB558C1D3CB7CC5763BD6DEDFD4A
:10010000753EF6177231BF000000803F0800000006
:10011000BE922449123EABAAAA2ABECDCCCC4C3EFC
:1001200000000080BEABAAAAAA3E00000000BF00EB
:100130000000803F0000000000084178D3BB4387E7
:10014000D1133D190E3CC3BD4282AD2B3E68EC82FB
:1001500076BED98FE1A93E4C80EFFFBE01C4FF7F80
:100160003F000000000011241FBECFEFD1E2DEBF30
:10017000CDBF00E00CBF12E0A0E0B2E0ECE4F6E19D
:1001800000E00BBF02C007900D92AC39B107D9F760
:1001900022E0ACE9B2E001C01D92A83EB207E1F74F
:1001A00009D20C94240B2CCF81B18E7F81B98DB1F3
:1001B0008F7E8DB98DB18F7D8DB98AB18B7F8AB9D4
:1001C0008AB182608AB98AB181608AB9EAE0F1E0D5
:1001D000808180628083808188608083808182606A
:1001E000808384B1806284B984B1806184B9E1E0A4
:1001F000F1E0808180648083EBE0F1E080818D7F9D
:10020000808382B1816082B98EB180618EB98EB1F6
:1002100080628EB98BB184608BB9EAE6F0E08081B0
:100220008062808380818F7E808380818D7F8083C8
:1002300080818E7F80838081877F808380818B7F98
:10024000808378940895E0919C02F0919D02EA5594
:10025000FD4F808380919C0290919D020196909326
:100260009D0280939C020895E0919C02F0919D0272
:10027000EA55FD4F80818093BB0080919C02909154
:100280009D02019690939D0280939C020895F8949C
:10029000880F8093BA0085EC8093BC007894089511
:1002A0001F920F920FB60F9211240BB60F922F933D
:1002B0003F934F935F936F937F938F939F93AF93EE
:1002C000BF93EF93FF938091B900887F803849F006
:1002D00018F4882331F12BC0883AC9F0883BE1F04B
:1002E00026C08091BB00AFDF80919C0290919D025F
:1002F000049749F481E080939E028EEF9FEF9093E4
:100300009D0280939C0285EC8093BC0013C0ACDFFF
:1003100085EC8093BC000EC0A7DF85EC8093BC0009
:1003200009C0ECEBF0E0108285EC808303C085EC23
:100330008093BC00FF91EF91BF91AF919F918F91FE
:100340007F916F915F914F913F912F910F900BBED5
:100350000F900FBE0F901F90189588B1846088B9D8
:1003600000C088B18B7F88B90895CF93C82F6623CA
:1003700021F088B1816088B903C088B18E7F88B9C7
:1003800088B18D7F88B987B1886087B987B180616E
:1003900087B987B1806287B987B1806487B988B12E
:1003A0008F7B88B988B18F7D88B988B18F7E88B9F5
:1003B00088B1877F88B9CC231CF488B1806488B960
:1003C000C6FF03C088B1806288B9C5FF03C088B189
:1003D000806188B9C4FF03C088B1886088B9BDDF77
:1003E00088B18F7B88B988B18F7D88B988B18F7EBD
:1003F00088B988B1877F88B9C3FF03C088B180649A
:1004000088B9C2FF03C088B1806288B9C1FF03C048
:1004100088B1806188B9C0FF03C088B1886088B99D
:100420009CDF88B1886088B988B1806188B988B15B
:10043000806288B988B1806488B9CF910895882393
:1004400021F088B1816088B903C088B18E7F88B9F6
:1004500088B1826088B987B1877F87B987B18F7E7D
:1004600087B987B18F7D87B987B18F7B87B988B10D
:10047000846088B900C0339902C080E001C080E187
:1004800034998062359980643699806898B19B7FF1
:1004900098B900C098B1946098B900C03399816050
:1004A00034998260359984603699886098B19B7FD1
:1004B00098B9089580E0C3DF8823E4F300C080E0AA
:1004C000BECF0895CF93C82FF5DF60E08C2F4DDFAE
:1004D000CF910895611103C08058F4CF08958054DE
:1004E000F1CF089581E0EECF0895CF93C82FE2DFDA
:1004F000CA3041F4803410F480E401C080E08058B8
:10050000E1DF03C061E08C2F30DFCF910895CF93FE
:10051000DF93FC0102C0E9DFFE01EF01219680813B
:100520008111F9CFDF91CF9108951F93CF93DF937E
:10053000182F87B1816087B987B1826087B987B189
:10054000846087B987B1886087B987B1806187B9CE
:1005500087B1806287B987B1806487B980EA9FE0FC
:100560000197F1F788B1806188B988B1886088B94E
:10057000F4DE80EE94E00197F1F7EFDEC0E1D0E029
:10058000CE010197F1F7E9DECE010197F1F788B1CD
:10059000877F88B9E2DE2197F1F788E293DF88E070
:1005A00091DFA0DF86E08EDF812F8CDFDF91CF919E
:1005B0001F910895F894E1E6F0E080E8808384E0FC
:1005C00080837894F1DD1BD426D439D48CE0ADDF60
:1005D00082E092E09CDF80E25ADE68D180E090E029
:1005E00008954AE062EC72E08091D2029091D302C9
:1005F000D7D761E08091D0026DDF82EC92E087CFA7
:100600000895CF93DF93EC0160E080E063DFCE01DB
:100610007EDFDF91CF910895CF93DF93EC0161E00E
:1006200080E058DFCE0173DFDF91CF910895CF9244
:10063000DF92EF92FF926B017C0161E080E04ADF84
:100640002AE04EED52E0C701B601B4D78EED92E03C
:100650005EDFFF90EF90DF90CF90089580E090E014
:1006600008C0FC01EE0FFF1FE255FD4F1182108202
:1006700001968A309105A9F7089580E090E005C0C1
:10068000FC01EE53FD4F108201968A309105C1F7AF
:10069000089580E090E005C0FC01EA55FD4F10820E
:1006A000019688309105C1F708958DB384608DBBA4
:1006B0008DB380618DBB8DB380628DBB08958DB38A
:1006C0008B7F8DBB8DB38F7E8DBB8DB38F7D8DBBAF
:1006D00008950F931F93FC0120816181862F90E084
:1006E000A0E0B0E0BA2FA92F982F8827820F911D84
:1006F000A11DB11D028110E020E030E0980111271A
:100700000027AC01BD01400F511F621F731F838181
:1007100090E0A0E0B0E0B82FAA27992788278A01A7
:100720009B01080F191F2A1F3B1FC901B8011F9108
:100730000F9108958F929F92AF92BF92EF92FF9286
:100740000F931F93CF93DF93E090D002F090D102EC
:10075000E70100E010E04DC0BE010D2E000C880B3B
:10076000990B16D49B01AC0160E070E080E291E44B
:100770002ED59AD4262F372F482F592F203786E988
:10078000380788E94807510521F420E836E948E9A7
:1007900050E0203E80EE380785EF480785E0580797
:1007A00021F420E031EE45EF55E0F801EE0FFF1F98
:1007B000E255FD4FA081B181D4D68090CC029090BB
:1007C000CD02A090CE02B090CF02DC01CB01880D0B
:1007D000991DAA1DBB1D8093CC029093CD02A093BE
:1007E000CE02B093CF02219712F4C0E0D0E00F5FA9
:1007F0001F4FC7010196081719070CF4ADCFDF9101
:10080000CF911F910F91FF90EF90BF90AF909F906D
:100810008F900895EBE0F1E080818062808385B164
:10082000806185B90895EBE0F1E080818F7D808360
:1008300085B18F7E85B9089520E030E016C0EBE0E9
:10084000F1E080818860808383EF91E00197F1F788
:1008500000C000008081877F808383EF91E0019753
:10086000F1F700C000002F5F3F4F283C31053CF3FB
:1008700008954091CC025091CD026091CE027091CA
:10088000CF028091DA029091DB02A091DC02B0915C
:10089000DD02481759076A077B0721F482EC91E0D3
:1008A0008EC2089580E699E08AC208958EEF9FEF88
:1008B00090939D0280939C0286E490E08BD288E71F
:1008C00095E07DD28091A302823009F46BC030F4B0
:1008D000882369F0813009F440C0F4CF843009F4F2
:1008E000DBC008F4C1C0853009F41DC1EBCF809195
:1008F0000102813039F71092CC021092CD02109291
:10090000CE021092CF021092D5021092D402109211
:10091000D1021092D0021092D3021092D202109201
:10092000D6021092D7021092D8021092D902DADDC4
:1009300087E092E066DE55DEB8DE1092D6021092B5
:10094000D7021092D8021092D902EEE6F0E0808130
:100950008160808310920102B5CFEEE6F0E08081E5
:100960008E7F80831092D6021092D7021092D80206
:100970001092D902B7DD8BE192E043DE4BDF2FEB23
:1009800087E299E0215080409040E1F700C00000EC
:100990004ADF8091A4028F5F8093A40282E080935B
:1009A000A30290CF1092A50274DE9CDD8DE292E04E
:1009B00028DE8DE392E030DE10929E02EEE6F0E05B
:1009C0008081816080831092D6021092D7021092AB
:1009D000D8021092D90230DF8091A5028F5F8093F8
:1009E000A5024AE062EC72E090E0DAD561E08FE0C7
:1009F00071DD82EC92E08BDD8091D6029091D7027E
:100A0000A091D802B091D902803D9740A105B105CF
:100A100021F080919E02882379F380919E028111BA
:100A200004C08091A502833071F6EEE6F0E080818B
:100A30008E7F808380919E02813031F410929E02DD
:100A400083E08093A3023ECF8091A402823031F4F0
:100A50001092A40285E08093A30234CF1092A502E5
:100A600081E08093A3022ECF80910002813049F46F
:100A700039DD8DE492E0C5DD89E592E0CDDD1092AF
:100A8000000280919E02813009F01CCF10929E02DC
:100A900084E08093A30216CF81E08093000210923D
:100AA000A40281E090E09093D5028093D40286EA7C
:100AB00092E00FDE6093DA027093DB028093DC0237
:100AC0009093DD020FDD8AE692E09BDD6091DA0211
:100AD0007091DB028091DC029091DD02A8DD8FED48
:100AE00093E924E0815090402040E1F700C00000ED
:100AF000C0DE8FE39DE023E0815090402040E1F78D
:100B000000C0000088E795E05AD18FE39DE023E024
:100B1000815090402040E1F700C00000AEDD82E04F
:100B20008093A302CFCE81E08093010297DDA5DD03
:100B3000D9DC8CE792E065DD8FED93E924E081500C
:100B400090402040E1F700C000001092A302BACE0E
:100B50001F920F920FB60F9211248F939F93AF9312
:100B6000BF938DE786BD8091D6029091D702A09168
:100B7000D802B091D9020196A11DB11D8093D60271
:100B80009093D702A093D802B093D902BF91AF91AE
:100B90009F918F910F900FBE0F901F9018951F92ED
:100BA0000F920FB60F9211240BB60F92CF92DF92D5
:100BB000EF92FF922F933F934F935F936F937F93A7
:100BC0008F939F93AF93BF93EF93FF9378DDC09084
:100BD000D602D090D702E090D802F090D90280914E
:100BE0009F029091A002A091A102B091A202A70140
:100BF0009601281B390B4A0B5B0B2B303105410545
:100C0000510550F180B1882311F081E001C080E0EE
:100C1000813069F48091D2029091D302893091059C
:100C200094F401969093D3028093D2020CC08091E9
:100C3000D2029091D302181619062CF401979093C2
:100C4000D3028093D202CDDCC0929F02D092A00248
:100C5000E092A102F092A20228DDFF91EF91BF91F4
:100C6000AF919F918F917F916F915F914F913F9144
:100C70002F91FF90EF90DF90CF900F900BBE0F90D1
:100C80000FBE0F901F9018951F920F920FB60F92E4
:100C900011240BB60F922F933F934F935F936F9353
:100CA0007F938F939F93AF93BF93EF93FF9307DD52
:100CB0008091D0029091D10288309105A4F4FC017A
:100CC000EE0FFF1FE255FD4F2091D2023091D3026B
:100CD0003183208301969093D1028093D0021092A9
:100CE000D3021092D2027DDC2FE788E391E02150FD
:100CF00080409040E1F700C00000D7DCFF91EF9109
:100D0000BF91AF919F918F917F916F915F914F9123
:100D10003F912F910F900BBE0F900FBE0F901F9021
:100D200018951F920F920FB60F9211240BB60F92C7
:100D30002F933F934F935F936F937F938F939F93E3
:100D4000AF93BF93EF93FF93BADCE091D002F091A1
:100D5000D102EE0FFF1FE255FD4F8091D20290911C
:100D6000D30291838083E6DC88E892E04ADC6091DC
:100D7000CC027091CD028091CE029091CF0257DCCF
:100D80002FE78AE196E0215080409040E1F700C0D3
:100D9000000081E08093A302FF91EF91BF91AF919A
:100DA0009F918F917F916F915F914F913F912F9183
:100DB0000F900BBE0F900FBE0F901F9018952FE154
:100DC0003EE43093870020938600909389008093BF
:100DD000880008951092B200BC01990F880B990BFE
:100DE000D7D020E030E048EC52E43CD020E030E0C6
:100DF0004FE753E489D19ED06093B400089585B540
:100E00008B7F85BD85B5826085BD85B58E7F85BDAF
:100E10008DE786BD0895E0E8F0E0808180688083FA
:100E2000808182608083E1E8F0E080818860808357
:100E30008081806180838081816080830895E0EB80
:100E4000F0E0808180628083808181608083808106
:100E500082608083E1EBF0E080818160808310928A
:100E6000B20008950CD0E6C0DED040F0D5D030F00E
:100E700021F45F3F19F0C7C0511110C1CAC0EBD0B7
:100E800098F39923C9F35523B1F3951B550BBB2751
:100E9000AA2762177307840738F09F5F5F4F220FFE
:100EA000331F441FAA1FA9F333D00E2E3AF0E0E8F7
:100EB00030D091505040E695001CCAF729D0FE2F43
:100EC00027D0660F771F881FBB1F261737074807D5
:100ED000AB07B0E809F0BB0B802DBF01FF2793588B
:100EE0005F4F2AF09E3F510568F08DC0D7C05F3F2D
:100EF000ECF3983EDCF3869577956795B795F79573
:100F00009F5FC9F7880F911D9695879597F908956A
:100F1000E1E0660F771F881FBB1F62177307840706
:100F2000BA0720F0621B730B840BBA0BEE1F88F715
:100F3000E095089598D088F09F5790F0B92F9927A1
:100F4000B751A0F0D1F0660F771F881F991F1AF0D4
:100F5000BA95C9F712C0B13081F09FD0B1E00895C1
:100F60009CC0672F782F8827B85F39F0B93FCCF342
:100F7000869577956795B395D9F73EF490958095CA
:100F8000709561957F4F8F4F9F4F0895E89409C0EA
:100F900097FB3EF490958095709561957F4F8F4FAC
:100FA0009F4F9923A9F0F92F96E9BB279395F695C2
:100FB000879577956795B795F111F8CFFAF4BB0F40
:100FC00011F460FF1BC06F5F7F4F8F4F9F4F16C0A4
:100FD000882311F096E911C0772321F09EE8872F2E
:100FE000762F05C0662371F096E8862F70E060E0EA
:100FF0002AF09A95660F771F881FDAF7880F969563
:10100000879597F9089597F99F6780E870E060E009
:1010100008959FEF80EC089500240A941616170691
:1010200018060906089500240A94121613061406D9
:1010300005060895092E0394000C11F4882352F03C
:10104000BB0F40F4BF2B11F460FF04C06F5F7F4FF4
:101050008F4F9F4F089557FD9058440F551F59F0DB
:101060005F3F71F04795880F97FB991F61F09F3F95
:1010700079F087950895121613061406551FF2CFBE
:101080004695F1DF08C0161617061806991FF1CF0E
:1010900086957105610508940895E894BB27662735
:1010A0007727CB0197F90895DEDF58F19E5758F165
:1010B0009851A0F0E9F0983020F5092E9927660F95
:1010C000771F881F991F0A94D1F712C0062E672F29
:1010D000782F8827985F11F4000C07C0993FB4F36C
:1010E0008695779567959395D9F7611D711D811D3B
:1010F0003EF490958095709561957F4F8F4F9F4FEF
:1011000008956894CBCFC9CF0BD094CF85DF28F05A
:101110008ADF18F0952309F076CF7BCF1124BECF5C
:101120009ADFA0F3959FD1F3950F50E0551F629F72
:10113000F001729FBB27F00DB11D639FAA27F00D30
:10114000B11DAA1F649F6627B00DA11D661F829F57
:101150002227B00DA11D621F739FB00DA11D621F3C
:10116000839FA00D611D221F749F3327A00D611D59
:10117000231F849F600D211D822F762F6A2F11243B
:101180009F5750408AF0E1F088234AF0EE0FFF1F8E
:10119000BB1F661F771F881F91505040A9F79E3FC5
:1011A000510570F030CF7ACF5F3FECF3983EDCF31F
:1011B000869577956795B795F795E7959F5FC1F702
:1011C000FE2B880F911D9695879597F90895FA0142
:1011D000EE0FFF1F30962105310599F1611571055C
:1011E00061F48038BFE39B0749F16894903881052A
:1011F00061F08038BFEF9B0741F0992342F5FF3F34
:10120000E1053105210511F1E8940894E795D9012C
:10121000AA2329F4AB2FBE2FF85FD0F310C0FF5FD5
:1012200070F4A695E0F7F73950F019F0FF3A38F46A
:101230009F779F930CD00F9007FC905808953EF035
:10124000E8CE60E070E080E89FE308954FE79F7785
:101250005F934F933F932F939ED02F913F914F9148
:101260005F9152DF05C019F40EF0CDCE16CFD1CE6E
:10127000FADEC8F39638C0F707F80F92E8942BE32C
:101280003AEA48EB5FE74EDF0F920F920F924DB7AD
:101290005EB70F92C0D0E4EEF0E016D04F915F91B0
:1012A000EF91FF91E595EE1FFF1F49F0FE57E068B3
:1012B0004427EE0F441FFA95E1F74195550B32D0C4
:1012C0000F9007FE26C00895DF93CF931F930F93CF
:1012D000FF92EF92DF927B018C01689405C0DA2EB9
:1012E000EF011EDFFE01E894A5912591359145910E
:1012F0005591AEF3EF01D4D0FE019701A801DA9425
:1013000079F7DF90EF90FF900F911F91CF91DF91D0
:1013100008959B01AC0160E070E080E89FE3A2CDFE
:1013200072CE11C1A0DEE8F39923D9F3940F511DB9
:10133000BBF39150504094F059F0882332F0660F7F
:10134000771F881F91505040C1F79E3F510544F7C9
:10135000880F911D9695879597F908955F3FACF09A
:10136000983E9CF0BB27869577956795B79508F4CE
:10137000B1609395C1F7BB0F58F711F460FFE8CF48
:101380006F5F7F4F8F4F9F4FE3CF88CE0EF0DBC054
:1013900040CE689438CE67DEC8F39923D1F3C6F304
:1013A000DF93CF931F930F93FF92C92FDD278823DD
:1013B0002AF02197660F771F881FDAF720E030E0C8
:1013C00040E85FEB9FE3883920F0803E30F02196C3
:1013D0008F7755D0ECE0F1E003C051D0E9E3F1E0C4
:1013E00073DF8B01BE01EC01FB2E6F577109759500
:1013F000771F880B990BCCDD28E132E741E35FE3EF
:101400008FDEAF2D9801AE01FF900F911F91CF910C
:10141000DF9146D00FCEFA01DC01AA0FBB1F9B0162
:10142000AC01BF5728F422273327442750781FC028
:10143000B75188F4AB2F0024469537952795011CAA
:10144000A395D2F3002069F0220F331F441FB395F8
:10145000DAF30DD013C061307105A0E88A07B946F0
:1014600030F49B01AC016627772788279078309667
:1014700021F0208331834283538308955058BB2742
:10148000AA270ED0D7CDC8DD30F0CDDD20F031F465
:101490009F3F11F41EF4BDCD0EF4E095E7FBB3CDF4
:1014A000E92FD9DD80F3BA17620773078407950720
:1014B00018F071F49EF5F1CD0EF4E0950B2EBA2FD5
:1014C000A02D0B01B90190010C01CA01A00111244A
:1014D000FF27591B99F0593F50F4503E68F11A16F6
:1014E000F040A22F232F342F4427585FF3CF469587
:1014F00037952795A795F0405395C9F77EF41F16A9
:10150000BA0B620B730B840BBAF09150A1F0FF0F72
:10151000BB1F661F771F881FC2F70EC0BA0F621F5E
:10152000731F841F48F4879577956795B795F7954E
:101530009E3F08F0B3CF9395880F08F09927EE0FE0
:101540009795879508959F3F31F0915020F48795A6
:1015500077956795B795880F911D9695879597F91B
:101560000895B7FF04C003D0821B930B089509D0E0
:10157000A59F900DB49F900DA49F800D911D1124E7
:101580000895A29FB001B39FC001A39F700D811D5C
:101590001124911DB29F700D811D1124911D08957C
:1015A000BB274A3031F4992322F4BDE2909581950E
:1015B0009F4F22C0BB27FA01A62F62177105810534
:1015C0009105330B30FB66F0AA27660F771F881F43
:1015D000991FAA1FA21710F0A21B63953850A9F7F4
:1015E000A05DAA3308F0A95DA19336F7B111B193BC
:1015F0001082CA0119C0BB27FB015527AA27880FF3
:10160000991FAA1FA41710F0A41B83955051B9F776
:10161000A05DAA3308F0A95DA193009779F7B111F5
:10162000B1931192CB0100C0DC01FC01672F7191D5
:101630007723E1F7329704C07C916D9370836291B8
:0C164000AE17BF07C8F30895F894FFCF61
:10164C000101544553540043686F697820726573E7
:10165C00697374616E6365203A20005461626C6535
:10166C002076696272616E74652E2E2E0041747440
:10167C00656E746520696E666F206465006C612010
:10168C005261737062657272792E2E2E00436F6DEB
:10169C00706F73616E742021005363616E20656EF0
:1016AC0020636F7572732E2E2E00526573697374DE
:1016BC00616E6365206C7565203A20005472692058
:1016CC007465726D696E650056616C657572207318
:0C16DC006F756861697465203A20000099
:00000001FF
